:100000000C945A000C946F000C946F000C946F00C9
:100010000C946F000C946F000C946F000C946F00A4
:100020000C946F000C946F000C946F000C94AD0056
:100030000C946F000C946F000C946F000C946F0084
:100040000C946F000C946F000C946F000C946F0074
:100050000C946F000C946F000C946F000C946F0064
:100060000C946F000C946F000C946F000C946F0054
:100070000C946F000C946F000C946F000C946F0044
:100080000C946F000C946F000C946F000C946F0034
:100090000C946F000C946F000C946F000C946F0024
:1000A0000C946F000C946F000C946F000C946F0014
:1000B0000C946F0011241FBECFEFD8E0DEBFCDBF80
:1000C00011E0A0E0B1E0E6E7FCE002C005900D928F
:1000D000A43AB107D9F70E947E000C9439060C941B
:1000E000000088E090E09093C5008093C40088E110
:1000F0008093C10086E08093C20008950E94710041
:10010000789482E080936F0083E294EF909389006B
:1001100080938800109280008CE08093810084E4BA
:1001200080937C0085E880937A00FFCFE0ECF0E0DC
:10013000908195FFFDCF8093C6000895CF93DF9304
:10014000EC018881882331F021960E9496008991E4
:100150008111FBCFDF91CF9108951F920F920FB6BF
:100160000F921124CF92DF92EF92FF920F931F9381
:100170002F933F934F935F936F937F938F939F93AF
:10018000AF93BF93EF93FF93CF93DF93CDB7DEB7DA
:10019000CC5BD109DEBFCDBFEAE7F0E080818064AF
:1001A0008083808184FFFDCFEAE7F0E08081806179
:1001B0008083609178008091790070E0782B072E21
:1001C000000C880B990B0E94480220E030E040E8C8
:1001D0005AE30E94D40220E030E44CE955E40E9446
:1001E000D40220E030E040E251E40E949E016B0125
:1001F0007C018EE0EBE4F1E0DE01AB59BF4F0190F2
:100200000D928A95E1F7CE018B599F4F0E949E0077
:100210002FEF83ED90E3215080409040E1F700C044
:1002200000008CE2E9E5F1E0DE01AD58BF4F01903E
:100230000D928A95E1F7CE018D589F4F0E949E0046
:100240002FEF83ED90E3215080409040E1F700C014
:10025000000080E1E5E8F1E0DE01A156BF4F01902A
:100260000D928A95E1F7CE0181569F4F0E949E0024
:100270002FEF83ED90E3215080409040E1F700C0E4
:100280000000C701B6010E9410027F936F9380E0C7
:1002900091E09F938F931F9284E68F938E010F5F5F
:1002A0001F4F1F930F930E944103C8010E949E009D
:1002B0002FEF83ED90E3215080409040E1F700C0A4
:1002C00000008EE0E5E9F1E0DE01A155BF4F0190AD
:1002D0000D928A95E1F7CE0181559F4F0E949E00B5
:1002E0002FEF83ED90E3215080409040E1F700C074
:1002F00000000FB6F894DEBF0FBECDBFC454DF4F71
:100300000FB6F894DEBF0FBECDBFDF91CF91FF9146
:10031000EF91BF91AF919F918F917F916F915F917D
:100320004F913F912F911F910F91FF90EF90DF9090
:10033000CF900F900FBE0F901F9018950E94B201A2
:100340000C949A020E94930258F00E948C0240F092
:1003500029F45F3F29F00C94830251110C94CE02D2
:100360000C9489020E94AB0268F39923B1F35523E0
:1003700091F3951B550BBB27AA27621773078407B8
:1003800038F09F5F5F4F220F331F441FAA1FA9F34E
:1003900035D00E2E3AF0E0E832D091505040E6953C
:1003A000001CCAF72BD0FE2F29D0660F771F881F9D
:1003B000BB1F261737074807AB07B0E809F0BB0B90
:1003C000802DBF01FF2793585F4F3AF09E3F5105A4
:1003D00078F00C9483020C94CE025F3FE4F3983ED5
:1003E000D4F3869577956795B795F7959F5FC9F78D
:1003F000880F911D9695879597F90895E1E0660F0E
:10040000771F881FBB1F621773078407BA0720F086
:10041000621B730B840BBA0BEE1F88F7E0950895EF
:100420000E9417026894B1110C94CE0208950E94A4
:10043000B30288F09F5798F0B92F9927B751B0F0C1
:10044000E1F0660F771F881F991F1AF0BA95C9F758
:1004500014C0B13091F00E94CD02B1E008950C9427
:10046000CD02672F782F8827B85F39F0B93FCCF3DA
:10047000869577956795B395D9F73EF490958095D5
:10048000709561957F4F8F4F9F4F0895E89409C0F5
:1004900097FB3EF490958095709561957F4F8F4FB7
:1004A0009F4F9923A9F0F92F96E9BB279395F695CD
:1004B000879577956795B795F111F8CFFAF4BB0F4B
:1004C00011F460FF1BC06F5F7F4F8F4F9F4F16C0AF
:1004D000882311F096E911C0772321F09EE8872F39
:1004E000762F05C0662371F096E8862F70E060E0F5
:1004F0002AF09A95660F771F881FDAF7880F96956E
:10050000879597F9089597F99F6780E870E060E014
:1005100008959FEF80EC089500240A94161617069C
:1005200018060906089500240A94121613061406E4
:1005300005060895092E0394000C11F4882352F047
:10054000BB0F40F4BF2B11F460FF04C06F5F7F4FFF
:100550008F4F9F4F089557FD9058440F551F59F0E6
:100560005F3F71F04795880F97FB991F61F09F3FA0
:1005700079F087950895121613061406551FF2CFC9
:100580004695F1DF08C0161617061806991FF1CF19
:1005900086957105610508940895E894BB27662740
:1005A0007727CB0197F908950E94E7020C949A02ED
:1005B0000E948C0238F00E94930220F0952311F0E3
:1005C0000C9483020C94890211240C94CE020E9494
:1005D000AB0270F3959FC1F3950F50E0551F629FDA
:1005E000F001729FBB27F00DB11D639FAA27F00D8C
:1005F000B11DAA1F649F6627B00DA11D661F829FB3
:100600002227B00DA11D621F739FB00DA11D621F97
:10061000839FA00D611D221F749F3327A00D611DB4
:10062000231F849F600D211D822F762F6A2F112496
:100630009F5750409AF0F1F088234AF0EE0FFF1FC9
:10064000BB1F661F771F881F91505040A9F79E3F20
:10065000510580F00C9483020C94CE025F3FE4F3CA
:10066000983ED4F3869577956795B795F795E79576
:100670009F5FC1F7FE2B880F911D9695879597F97F
:100680000895AEE0B0E0E7E4F3E00C9410060D89C5
:100690001E898F89988D26E02C831A83098397FF02
:1006A00002C080E090E801979E838D83AE01455E95
:1006B0005F4F698D7A8DCE0101960E9471034D8145
:1006C0005E8157FD0AC02F813885421753070CF40D
:1006D0009A01F801E20FF31F10822E96E4E00C94C9
:1006E0002C06ABE0B0E0E7E7F3E00C9402066C0107
:1006F0007B018A01FC0117821682838181FFCCC1B4
:10070000CE0101963C01F6019381F70193FD85919D
:1007100093FF81917F01882309F4BAC1853239F4AE
:1007200093FD859193FF81917F01853229F4B60174
:1007300090E00E946805E7CF912C212C312CFFE13D
:10074000F315D8F08B3279F038F4803279F08332B7
:10075000A1F4232D20611DC08D3261F0803369F436
:10076000232D216016C0832D8260382EE32DE46096
:100770003E2E2AC0F32DF8601DC037FC2DC020EDA1
:10078000280F2A3040F08E32B9F436FC81C1232D77
:100790002064322E19C036FE06C08AE0989E200DD5
:1007A0001124922E11C0EAE02E9E200D1124222E3B
:1007B000F32DF0623F2E08C08C3621F4832D806823
:1007C000382E02C0883641F4F70193FD859193FFDE
:1007D00081917F018111B3CF982F9F7D95549330E4
:1007E00028F40C5F1F4F9FE399830DC0833631F0CF
:1007F000833771F0833509F059C021C0F801808139
:1008000089830E5F1F4F88248394912C530113C05A
:100810002801F2E04F0E511CF801A080B18036FE95
:1008200003C0692D70E002C06FEF7FEFC5010E9429
:100830005D054C018201F32DFF773F2E16C0280184
:1008400022E0420E511CF801A080B18036FE03C0A8
:10085000692D70E002C06FEF7FEFC5010E94520565
:100860004C01F32DF0683F2E820133FC1BC0822D1A
:1008700090E088169906B0F4B60180E290E00E94FC
:1008800068052A94F4CFF50137FC859137FE8191F4
:100890005F01B60190E00E94680521102A9421E0D2
:1008A000821A91088114910471F7E8C0843611F01E
:1008B000893641F5F80137FE07C060817181828178
:1008C00093810C5F1F4F08C060817181072E000C5F
:1008D000880B990B0E5F1F4FF32DFF763F2E97FF6E
:1008E00009C090958095709561957F4F8F4F9F4F70
:1008F000F0683F2E2AE030E0A3010E94A405882E74
:10090000861845C0853731F4232D2F7EB22E2AE07C
:1009100030E025C0932D997FB92E8F36C1F018F4A1
:10092000883579F0B5C0803719F0883721F0B0C02C
:10093000E92FE061BE2EB4FE0DC0FB2DF460BF2E8A
:1009400009C034FE0AC0292F2660B22E06C028E056
:1009500030E005C020E130E002C020E132E0F801E3
:10096000B7FE07C060817181828193810C5F1F4F48
:1009700006C06081718180E090E00E5F1F4FA3018F
:100980000E94A405882E8618FB2DFF773F2E36FE89
:100990000DC0232D2E7FA22E891458F434FE0BC0D7
:1009A00032FC09C0832D8E7EA82E05C0B82CA32C46
:1009B00003C0B82C01C0B92CA4FE0FC0FE01E80D85
:1009C000F11D8081803321F49A2D997EA92E09C0D2
:1009D000A2FE06C0B394B39404C08A2D867809F0B1
:1009E000B394A3FC11C0A0FE06C0B21488F4280C76
:1009F000922C9B180EC0B21460F4B60180E290E015
:100A00000E946805B394F7CFB21418F42B1802C0F3
:100A1000982C212CA4FE10C0B60180E390E00E9427
:100A20006805A2FE17C0A1FC03C088E790E002C0E1
:100A300088E590E0B6010CC08A2D867859F0A1FEB9
:100A400002C08BE201C080E2A7FC8DE2B60190E01B
:100A50000E946805891438F4B60180E390E00E9492
:100A600068059A94F7CF8A94F301E80DF11D80810F
:100A7000B60190E00E9468058110F5CF222009F4AC
:100A800042CEB60180E290E00E9468052A94F6CF3B
:100A9000F6018681978102C08FEF9FEF2B96E2E1EE
:100AA0000C941E06FC010590615070400110D8F7AF
:100AB000809590958E0F9F1F0895FC0161507040A6
:100AC00001900110D8F7809590958E0F9F1F089583
:100AD0000F931F93CF93DF93FB01238121FD03C06D
:100AE0008FEF9FEF2CC022FF16C0468157812481D3
:100AF00035814217530744F4A081B1819D012F5FD6
:100B00003F4F318320838C93268137812F5F3F4F66
:100B10003783268314C08B01EC01FB010084F1852F
:100B2000E02D0995892BE1F6D80116968D919C91BF
:100B30001797019617969C938E931697CE01DF9187
:100B4000CF911F910F910895FA01AA27283051F1F2
:100B5000203181F1E8946F936E7F6E5F7F4F8F4FEE
:100B60009F4FAF4FB1E03ED0B4E03CD0670F781F4D
:100B7000891F9A1FA11D680F791F8A1F911DA11D32
:100B80006A0F711D811D911DA11D20D009F468946B
:100B90003F912AE0269F11243019305D3193DEF613
:100BA000CF010895462F4770405D4193B3E00FD0C9
:100BB000C9F7F6CF462F4F70405D4A3318F0495DB4
:100BC00031FD4052419302D0A9F7EACFB4E0A69597
:100BD0009795879577956795BA95C9F700976105B9
:100BE000710508959B01AC010A2E0694579547950F
:100BF00037952795BA95C9F7620F731F841F951F04
:100C0000A01D08952F923F924F925F926F927F9214
:100C10008F929F92AF92BF92CF92DF92EF92FF920C
:100C20000F931F93CF93DF93CDB7DEB7CA1BDB0BB8
:100C30000FB6F894DEBF0FBECDBF09942A8839885D
:100C400048885F846E847D848C849B84AA84B98464
:100C5000C884DF80EE80FD800C811B81AA81B98170
:100C6000CE0FD11D0FB6F894DEBF0FBECDBFED0184
:060C70000895F894FFCF87
:100C76004745542068747470733A2F2F6170692E3B
:100C86007468696E67737065616B2E636F6D2F751F
:100C960070646174653F6170695F6B65793D52533D
:100CA600524D4D594338574332324B4448432666DA
:100CB60069656C64313D25640D0A0041542B434936
:100CC600504D55583D300D0A0041542B4349505361
:100CD600544152543D22544350222C226170692EB5
:100CE6007468696E67737065616B2E636F6D222C15
:100CF60038300D0A0041542B43495053454E443D6C
:100D060038300D0A0041542B434950434C4F53454C
:040D16000D0A0000C2
:00000001FF
