S01500005461736B315F50617274325F432E7372656381
S11300000C945A000C9464000C9464000C946400E6
S11300100C9464000C9464000C9464000C946400CC
S11300200C9464000C9464000C9464000C946400BC
S11300300C9464000C9464000C9464000C946400AC
S11300400C9464000C9464000C9464000C9464009C
S11300500C9464000C9464000C9464000C9464008C
S11300600C9464000C9464000C9464000C9464007C
S11300700C9464000C9464000C9464000C9464006C
S11300800C9464000C9464000C9464000C9464005C
S11300900C9464000C9464000C9464000C9464004C
S11300A00C9464000C9464000C9464000C9464003C
S11300B00C94640011241FBECFEFD8E0DEBFCDBF87
S11300C00E9466000C9483000C940000229A2A9AE1
S11300D087B117B8429A14BC85B5856085BD21E007
S11300E032990FC02A9816BC25BB8CE490E0A89BDB
S11300F0FECF16BC25BB0197D1F786B58B34E8F348
S10D0100EFCF2A9AEDCFF894FFCF59
S9030000FC
