S00D00005461736B312E7372656353
S11300000C945A000C9477000C9477000C947700AD
S11300100C9479000C9477000C9477000C9477007E
S11300200C9477000C9477000C9477000C94770070
S11300300C9477000C9477000C9477000C94770060
S11300400C9477000C9477000C9477000C94770050
S11300500C9477000C9477000C9477000C94770040
S11300600C9477000C9477000C9477000C94770030
S11300700C9477000C9477000C9477000C94770020
S11300800C9477000C9477000C9477000C94770010
S11300900C9477000C9477000C9477000C94770000
S11300A00C9477000C9477000C9477000C947700F0
S11300B00C94770011241FBECFEFD8E0DEBFCDBF74
S11300C011E0A0E0B1E0EAE5FAE002C005900D928B
S11300D0A630B107D9F721E0A6E0B1E001C01D9236
S11300E0AA30B207E1F70E94CE000C942B050C94C1
S11300F000001F920F920FB60F9211242F938F932B
S11301009F938091060190910701019690930701B6
S113011080930601029774F080910801909109017F
S113012021E082279093090180930801109207012E
S1130130109206018FEF93EC29E08150904020400B
S1130140E1F700C000009F918F912F910F900FBE97
S11301500F901F9018951092C50087E68093C400F5
S113016088E18093C10086E08093C2000895E0ECAA
S1130170F0E0908195FFFDCF8093C6000895CF9362
S1130180DF93EC018881882331F021960E94B70027
S113019089918111FBCFDF91CF910895CF93DF93A4
S11301A0CDB7DEB764970FB6F894DEBF0FBECDBFF0
S11301B08FEF84B985B90E94AB0082E08093680018
S11301C080936C00789480E480937C0085E880932D
S11301D07A006894332431F80AE710E00F2EF8E728
S11301E08F2E912CF02D0F2EF9E76F2E712CF02D00
S11301F00F2EF0E0AF2EF1E0BF2EF02D0F2EF4E124
S11302004F2EF02DCE0101966C0155245A9438B826
S1130210F801808180648083F801808184FFFCCFB1
S1130220808180618083F401E080F3018081F12C7E
S1130230F82AFF92EF92BF92AF921F924F92DF92F1
S1130240CF920E943302C6010E94BF000FB6F894F9
S1130250DEBF0FBECDBF9AE0E916F10488F48091A9
S1130260080190910901892B49F015B855B8EFE9B7
S1130270FFE03197F1F700C00000C9CF55B8C7CFF0
S1130280C7010A970A97B8F480910801909109016F
S1130290892B79F015B88FE891E00197F1F700C048
S11302A0000055B8EFE0FEE03197F1F700C0000020
S11302B0AECF55B8ACCFC70144970A97B8F4809134
S11302C0080190910901892B79F015B88FE193E029
S11302D00197F1F700C0000055B8EFE7FCE0319753
S11302E0F1F700C0000093CF55B891CFC7014E97E6
S11302F00A97B8F48091080190910901892B79F04B
S113030015B88FEA94E00197F1F700C0000055B8E2
S1130310EFEEFAE03197F1F700C0000078CF55B85E
S113032076CFC70188970A97B8F480910801909115
S11303300901892B79F015B88FE396E00197F1F75D
S113034000C0000055B8EFE5F9E03197F1F700C0BF
S113035000005DCF55B85BCFC701C2970A97B8F4C8
S11303608091080190910901892B79F015B88FECDF
S113037097E00197F1F700C0000055B8EFECF7E003
S11303803197F1F700C0000042CF55B840CFC70104
S1130390CC970A97B8F48091080190910901892BB0
S11303A079F015B88FE599E00197F1F700C00000E6
S11303B055B8EFE3F6E03197F1F700C0000027CF1E
S11303C055B825CFC701865491090A97B8F480918E
S11303D0080190910901892B79F015B88FEE9AE004
S11303E00197F1F700C0000055B8EFEAF4E0319747
S11303F0F1F700C000000BCF55B809CFF0E5EF1AB4
S1130400F1088AE0E816F104B8F4809108019091AB
S11304100901892B79F015B8EFE7FCE03197F1F782
S113042000C0000055B88FE193E00197F1F700C0D8
S11304300000EDCE55B8EBCE8091080190910901F2
S1130440892B79F015B8E7EDFEE03197F1F700C09C
S1130450000055B887EC90E00197F1F700C0000068
S1130460D6CE55B8D4CEAEE0B0E0E9E3F2E00C94D9
S113047002050D891E898F89988D26E02C831A83A5
S1130480098397FF02C080E090E801979E838D83E3
S1130490AE01455E5F4F698D7A8DCE0101960E9453
S11304A063024D815E8157FD0AC02F813885421752
S11304B053070CF49A01F801E20FF31F10822E96F1
S11304C0E4E00C941E05ABE0B0E0E9E6F2E00C9445
S11304D0F4046C017B018A01FC011782168283817A
S11304E081FFCCC1CE0101963C01F6019381F70155
S11304F093FD859193FF81917F01882309F4BAC10B
S1130500853239F493FD859193FF81917F01853282
S113051029F4B60190E00E945A04E7CF912C212CD3
S1130520312CFFE1F315D8F08B3279F038F48032B6
S113053079F08332A1F4232D20611DC08D3261F046
S1130540803369F4232D216016C0832D8260382EF8
S1130550E32DE4603E2E2AC0F32DF8601DC037FC65
S11305602DC020ED280F2A3040F08E32B9F436FC2D
S113057081C1232D2064322E19C036FE06C08AE0C4
S1130580989E200D1124922E11C0EAE02E9E200D7B
S11305901124222EF32DF0623F2E08C08C3621F454
S11305A0832D8068382E02C0883641F4F70193FD0C
S11305B0859193FF81917F018111B3CF982F9F7D06
S11305C09554933028F40C5F1F4F9FE399830DC01B
S11305D0833631F0833771F0833509F059C021C077
S11305E0F801808189830E5F1F4F88248394912CA6
S11305F0530113C02801F2E04F0E511CF801A080F2
S1130600B18036FE03C0692D70E002C06FEF7FEF4A
S1130610C5010E944F044C018201F32DFF773F2E48
S113062016C0280122E0420E511CF801A080B180BE
S113063036FE03C0692D70E002C06FEF7FEFC50185
S11306400E9444044C01F32DF0683F2E820133FCD8
S11306501BC0822D90E088169906B0F4B60180E2A2
S113066090E00E945A042A94F4CFF50137FC859156
S113067037FE81915F01B60190E00E945A04211077
S11306802A9421E0821A91088114910471F7E8C038
S1130690843611F0893641F5F80137FE07C06081D0
S11306A07181828193810C5F1F4F08C060817181C9
S11306B0072E000C880B990B0E5F1F4FF32DFF764E
S11306C03F2E97FF09C090958095709561957F4F57
S11306D08F4F9F4FF0683F2E2AE030E0A3010E9425
S11306E09604882E861845C0853731F4232D2F7E35
S11306F0B22E2AE030E025C0932D997FB92E8F3693
S1130700C1F018F4883579F0B5C0803719F088370E
S113071021F0B0C0E92FE061BE2EB4FE0DC0FB2D68
S1130720F460BF2E09C034FE0AC0292F2660B22E01
S113073006C028E030E005C020E130E002C020E13E
S113074032E0F801B7FE07C0608171818281938134
S11307500C5F1F4F06C06081718180E090E00E5FE6
S11307601F4FA3010E949604882E8618FB2DFF7745
S11307703F2E36FE0DC0232D2E7FA22E891458F451
S113078034FE0BC032FC09C0832D8E7EA82E05C01A
S1130790B82CA32C03C0B82C01C0B92CA4FE0FC0E4
S11307A0FE01E80DF11D8081803321F49A2D997E9C
S11307B0A92E09C0A2FE06C0B394B39404C08A2D26
S11307C0867809F0B394A3FC11C0A0FE06C0B2144D
S11307D088F4280C922C9B180EC0B21460F4B60155
S11307E080E290E00E945A04B394F7CFB21418F454
S11307F02B1802C0982C212CA4FE10C0B60180E353
S113080090E00E945A04A2FE17C0A1FC03C088E72E
S113081090E002C088E590E0B6010CC08A2D86788D
S113082059F0A1FE02C08BE201C080E2A7FC8DE278
S1130830B60190E00E945A04891438F4B60180E3AA
S113084090E00E945A049A94F7CF8A94F301E80D39
S1130850F11D8081B60190E00E945A048110F5CF09
S1130860222009F442CEB60180E290E00E945A04AC
S11308702A94F6CFF6018681978102C08FEF9FEF0D
S11308802B96E2E10C941005FC0105906150704038
S11308900110D8F7809590958E0F9F1F0895FC0145
S11308A06150704001900110D8F7809590958E0F9B
S11308B09F1F08950F931F93CF93DF93FB01238111
S11308C021FD03C08FEF9FEF2CC022FF16C046818D
S11308D05781248135814217530744F4A081B181A3
S11308E09D012F5F3F4F318320838C932681378175
S11308F02F5F3F4F3783268314C08B01EC01FB012C
S11309000084F185E02D0995892BE1F6D80116962E
S11309108D919C911797019617969C938E93169799
S1130920CE01DF91CF911F910F910895FA01AA276B
S1130930283051F1203181F1E8946F936E7F6E5F1E
S11309407F4F8F4F9F4FAF4FB1E03ED0B4E03CD0CC
S1130950670F781F891F9A1FA11D680F791F8A1FAF
S1130960911DA11D6A0F711D811D911DA11D20D016
S113097009F468943F912AE0269F11243019305DD0
S11309803193DEF6CF010895462F4770405D4193C1
S1130990B3E00FD0C9F7F6CF462F4F70405D4A330E
S11309A018F0495D31FD4052419302D0A9F7EACFD6
S11309B0B4E0A6959795879577956795BA95C9F705
S11309C000976105710508959B01AC010A2E0694F8
S11309D05795479537952795BA95C9F7620F731FB1
S11309E0841F951FA01D08952F923F924F925F92EE
S11309F06F927F928F929F92AF92BF92CF92DF922B
S1130A00EF92FF920F931F93CF93DF93CDB7DEB78F
S1130A10CA1BDB0B0FB6F894DEBF0FBECDBF099423
S1130A202A88398848885F846E847D848C849B847A
S1130A30AA84B984C884DF80EE80FD800C811B8188
S1130A40AA81B981CE0FD11D0FB6F894DEBF0FBEB7
S10D0A50CDBFED010895F894FFCF27
S1090A5A25640D0A0000F2
S9030000FC
