S01300005461736B325F50617274322E7372656324
S11300000C945A000C946C000C946C000C946C00CE
S11300100C946C000C946C000C946C000C946C00AC
S11300200C946C000C946C000C946C000C946C009C
S11300300C946C000C946C000C946C000C946C008C
S11300400C9488000C946C000C946C000C946C0060
S11300500C946C000C946C000C946C000C946C006C
S11300600C946C000C946C000C946C000C946C005C
S11300700C946C000C946C000C946C000C946C004C
S11300800C946C000C946C000C946C000C946C003C
S11300900C946C000C946C000C946C000C946C002C
S11300A00C946C000C946C000C946C000C946C001C
S11300B00C946C0011241FBECFEFD8E0DEBFCDBF7F
S11300C021E0A0E0B1E001C01D92A430B207E1F745
S11300D00E946E000C94BA000C940000229A2A9A92
S11300E087B117B8429AEEE6F0E0808181608083A0
S11300F016BC789414BC85B5856085BD81E090E01C
S11301003299FECF2A989093030180930201F8CF8D
S11301101F920F920FB60F9211248F939F9316BCC8
S113012080910201909103010197E9F4809100010B
S1130130909101018C3491056CF08BE490E001976F
S1130140F1F72A9A10920301109202011092010110
S11301501092000180910001909101010196909309
S11301600101809300019F918F910F900FBE0F901A
S10B01701F901895F894FFCFCD
S9030000FC
