S01500005461736B315F50617274315F432E7372656382
S11300000C945A000C9464000C9464000C946400E6
S11300100C9464000C9464000C9464000C946400CC
S11300200C9464000C9464000C9464000C946400BC
S11300300C9464000C9464000C9464000C946400AC
S11300400C9464000C9464000C9464000C9464009C
S11300500C9464000C9464000C9464000C9464008C
S11300600C9464000C9464000C9464000C9464007C
S11300700C9464000C9464000C9464000C9464006C
S11300800C9464000C9464000C9464000C9464005C
S11300900C9464000C9464000C9464000C9464004C
S11300A00C9464000C9464000C9464000C9464003C
S11300B00C94640011241FBECFEFD8E0DEBFCDBF87
S11300C00E9466000C9488000C94000014BC229AD0
S11300D085B5856085BD21E034E016BC15B88AE19C
S11300E090E0A89BFECF16BC25BB0197D1F786B53F
S11300F08C38E8F316BC35B981E190E0A89BFECFBB
S113010016BC25BB0197D1F786B5833BE8F3E5CF51
S1070110F894FFCF8D
S9030000FC
