:100000000C945A000C9477000C9477000C947700B1
:100010000C9477000C9477000C9477000C94770084
:100020000C9477000C9477000C9477000C94770074
:100030000C9477000C9477000C9489000C94770052
:100040000C9477000C9477000C9477000C94770054
:100050000C9477000C9477000C9477000C94770044
:100060000C9477000C9477000C9477000C94770034
:100070000C9477000C9477000C9477000C94770024
:100080000C9477000C9477000C9477000C94770014
:100090000C9477000C9477000C9477000C94770004
:1000A0000C9477000C9477000C9477000C947700F4
:1000B0000C94770011241FBECFEFD8E0DEBFCDBF78
:1000C00011E0A0E0B1E0E8EDF1E002C005900D9292
:1000D000A230B107D9F721E0A2E0B1E001C01D9242
:1000E000A430B207E1F70E9479000C94EA000C9466
:1000F0000000229A8FEF87BD84B5826084BDEEE652
:10010000F0E080818260808385B5856085BD7894CC
:10011000FFCF1F920F920FB60F9211242F934F9380
:100120005F938F939F9380910201909103010196B9
:1001300090930301809302014091000150910101CD
:1001400021E08A3191050CF420E02223C1F021E066
:100150004130510509F020E0222389F08CE887BD69
:1001600080910201909103014B9754F18FEF87BD6D
:10017000109201011092000184E085B921C021E0B4
:100180008C970CF420E02223D9F081E0452B09F074
:1001900080E08823A9F080E487BD809102019091DE
:1001A00003018D976CF08FEF87BD81E090E0909315
:1001B00001018093000115B8109203011092020111
:1001C0009F918F915F914F912F910F900FBE0F9044
:0801D0001F901895F894FFCF71
:0201D800010024
:00000001FF
