:100000000C945A000C946F000C946F000C946F00C9
:100010000C946F000C946F000C946F000C946F00A4
:100020000C946F000C946F000C946F000C946F0094
:100030000C946F000C946F000C946F000C946F0084
:100040000C946F000C946F000C946F000C946F0074
:100050000C946F000C946F000C946F000C946F0064
:100060000C946F000C946F000C946F000C946F0054
:100070000C946F000C946F000C946F000C946F0044
:100080000C946F000C946F000C946F000C946F0034
:100090000C946F000C946F000C946F000C946F0024
:1000A0000C946F000C946F000C946F000C946F0014
:1000B0000C946F0011241FBECFEFD8E0DEBFCDBF80
:1000C00011E0A0E0B1E0E2E5FBE002C005900D9296
:1000D000A630B107D9F70E94E2000C94A7050C9452
:1000E000000080E480937C0085E880937A00089586
:1000F0001092C50087E68093C40088E18093C10018
:1001000086E08093C2000895E0ECF0E0908195FFD6
:10011000FDCF8093C6000895CF93DF93EC018881D3
:10012000882331F021960E94840089918111FBCFB0
:10013000DF91CF910895EF92FF920F931F93CF938A
:10014000DF93CDB7DEB764970FB6F894DEBF0FBE6E
:10015000CDBFEAE7F0E0808180648083808184FF06
:10016000FDCFEAE7F0E08081806180830091780034
:100170008091790010E0182B1F930F9380E091E09D
:100180009F938F931F9284E18F93CE0101967C0100
:100190009F938F930E94AF02C7010E948C000FB6FD
:1001A000F894DEBF0FBECDBFC80164960FB6F894B9
:1001B000DEBF0FBECDBFDF91CF911F910F91FF909A
:1001C000EF9008950E9478000E94710010928500BF
:1001D000109284008FE39CE99093870080938600BF
:1001E00082E8809380008AE180938100219AC8E8A8
:1001F000D0E00E949B00BC01990F880B990B0E94D4
:10020000B6012FE135E84BE350E40E94420220E0C2
:1002100030E040EA50E40E94420220E030EE49EF34
:1002200054E40E9419010E94850179836883E1CF1B
:100230005058BB27AA270E9430010C9408020E9444
:10024000FA0138F00E94010220F039F49F3F19F4BE
:1002500026F40C94F7010EF4E095E7FB0C94F10101
:10026000E92F0E94190258F3BA176207730784072F
:10027000950720F079F4A6F50C943B020EF4E09576
:100280000B2EBA2FA02D0B01B90190010C01CA0150
:10029000A0011124FF27591B99F0593F50F4503EFB
:1002A00068F11A16F040A22F232F342F4427585FED
:1002B000F3CF469537952795A795F0405395C9F705
:1002C0007EF41F16BA0B620B730B840BBAF09150BD
:1002D000A1F0FF0FBB1F661F771F881FC2F70EC05C
:1002E000BA0F621F731F841F48F48795779567952F
:1002F000B795F7959E3F08F0B0CF9395880F08F01B
:100300009927EE0F9795879508950E94210288F00E
:100310009F5798F0B92F9927B751B0F0E1F0660FC9
:10032000771F881F991F1AF0BA95C9F714C0B1300A
:1003300091F00E943B02B1E008950C943B02672FBC
:10034000782F8827B85F39F0B93FCCF38695779539
:100350006795B395D9F73EF4909580957095619522
:100360007F4F8F4F9F4F0895E89409C097FB3EF44D
:1003700090958095709561957F4F8F4F9F4F9923F2
:10038000A9F0F92F96E9BB279395F6958795779570
:100390006795B795F111F8CFFAF4BB0F11F460FF30
:1003A0001BC06F5F7F4F8F4F9F4F16C0882311F088
:1003B00096E911C0772321F09EE8872F762F05C09C
:1003C000662371F096E8862F70E060E02AF09A9537
:1003D000660F771F881FDAF7880F9695879597F92C
:1003E000089597F99F6780E870E060E008959FEFB7
:1003F00080EC089500240A941616170618060906BC
:10040000089500240A94121613061406050608958A
:10041000092E0394000C11F4882352F0BB0F40F412
:10042000BF2B11F460FF04C06F5F7F4F8F4F9F4F52
:10043000089557FD9058440F551F59F05F3F71F0D4
:100440004795880F97FB991F61F09F3F79F087953B
:100450000895121613061406551FF2CF4695F1DFC4
:1004600008C0161617061806991FF1CF8695710554
:10047000610508940895E894BB2766277727CB0188
:1004800097F908950E9455020C9408020E94FA01FF
:1004900038F00E94010220F0952311F00C94F10134
:1004A0000C94F70111240C943C020E94190270F381
:1004B000959FC1F3950F50E0551F629FF001729F09
:1004C000BB27F00DB11D639FAA27F00DB11DAA1F18
:1004D000649F6627B00DA11D661F829F2227B00D65
:1004E000A11D621F739FB00DA11D621F839FA00DF0
:1004F000611D221F749F3327A00D611D231F849F40
:10050000600D211D822F762F6A2F11249F57504096
:100510009AF0F1F088234AF0EE0FFF1FBB1F661F11
:10052000771F881F91505040A9F79E3F510580F0DA
:100530000C94F1010C943C025F3FE4F3983ED4F339
:10054000869577956795B795F795E7959F5FC1F77E
:10055000FE2B880F911D9695879597F90895AEE02B
:10056000B0E0E5EBF2E00C947E050D891E898F89E1
:10057000988D26E02C831A83098397FF02C080E0C0
:1005800090E801979E838D83AE01455E5F4F698D34
:100590007A8DCE0101960E94DF024D815E8157FD6A
:1005A0000AC02F813885421753070CF49A01F801CD
:1005B000E20FF31F10822E96E4E00C949A05ABE054
:1005C000B0E0E5EEF2E00C9470056C017B018A016D
:1005D000FC0117821682838181FFCCC1CE01019676
:1005E0003C01F6019381F70193FD859193FF819181
:1005F0007F01882309F4BAC1853239F493FD8591CE
:1006000093FF81917F01853229F4B60190E00E9429
:10061000D604E7CF912C212C312CFFE1F315D8F033
:100620008B3279F038F4803279F08332A1F4232DC3
:1006300020611DC08D3261F0803369F4232D21606B
:1006400016C0832D8260382EE32DE4603E2E2AC032
:10065000F32DF8601DC037FC2DC020ED280F2A3087
:1006600040F08E32B9F436FC81C1232D2064322E45
:1006700019C036FE06C08AE0989E200D1124922EE5
:1006800011C0EAE02E9E200D1124222EF32DF062DF
:100690003F2E08C08C3621F4832D8068382E02C08E
:1006A000883641F4F70193FD859193FF81917F0195
:1006B0008111B3CF982F9F7D9554933028F40C5F10
:1006C0001F4F9FE399830DC0833631F0833771F05C
:1006D000833509F059C021C0F801808189830E5FFC
:1006E0001F4F88248394912C530113C02801F2E0FA
:1006F0004F0E511CF801A080B18036FE03C0692D59
:1007000070E002C06FEF7FEFC5010E94CB044C0187
:100710008201F32DFF773F2E16C0280122E0420E02
:10072000511CF801A080B18036FE03C0692D70E035
:1007300002C06FEF7FEFC5010E94C0044C01F32D92
:10074000F0683F2E820133FC1BC0822D90E088169A
:100750009906B0F4B60180E290E00E94D6042A9493
:10076000F4CFF50137FC859137FE81915F01B60129
:1007700090E00E94D60421102A9421E0821A910868
:100780008114910471F7E8C0843611F0893641F57F
:10079000F80137FE07C060817181828193810C5F0F
:1007A0001F4F08C060817181072E000C880B990BC8
:1007B0000E5F1F4FF32DFF763F2E97FF09C09095D8
:1007C0008095709561957F4F8F4F9F4FF0683F2EBA
:1007D0002AE030E0A3010E941205882E861845C049
:1007E000853731F4232D2F7EB22E2AE030E025C04C
:1007F000932D997FB92E8F36C1F018F4883579F092
:10080000B5C0803719F0883721F0B0C0E92FE0611A
:10081000BE2EB4FE0DC0FB2DF460BF2E09C034FE09
:100820000AC0292F2660B22E06C028E030E005C09D
:1008300020E130E002C020E132E0F801B7FE07C05D
:1008400060817181828193810C5F1F4F06C060813E
:10085000718180E090E00E5F1F4FA3010E9412059E
:10086000882E8618FB2DFF773F2E36FE0DC0232DD8
:100870002E7FA22E891458F434FE0BC032FC09C01E
:10088000832D8E7EA82E05C0B82CA32C03C0B82CB7
:1008900001C0B92CA4FE0FC0FE01E80DF11D80813E
:1008A000803321F49A2D997EA92E09C0A2FE06C09C
:1008B000B394B39404C08A2D867809F0B394A3FC52
:1008C00011C0A0FE06C0B21488F4280C922C9B180C
:1008D0000EC0B21460F4B60180E290E00E94D6042B
:1008E000B394F7CFB21418F42B1802C0982C212C13
:1008F000A4FE10C0B60180E390E00E94D604A2FEE0
:1009000017C0A1FC03C088E790E002C088E590E032
:10091000B6010CC08A2D867859F0A1FE02C08BE288
:1009200001C080E2A7FC8DE2B60190E00E94D604EF
:10093000891438F4B60180E390E00E94D6049A94BA
:10094000F7CF8A94F301E80DF11D8081B60190E0A4
:100950000E94D6048110F5CF222009F442CEB601C0
:1009600080E290E00E94D6042A94F6CFF6018681B8
:10097000978102C08FEF9FEF2B96E2E10C948C05DC
:10098000FC010590615070400110D8F7809590955A
:100990008E0F9F1F0895FC0161507040019001105F
:1009A000D8F7809590958E0F9F1F08950F931F93F2
:1009B000CF93DF93FB01238121FD03C08FEF9FEFD6
:1009C0002CC022FF16C046815781248135814217F1
:1009D000530744F4A081B1819D012F5F3F4F3183C4
:1009E00020838C93268137812F5F3F4F3783268367
:1009F00014C08B01EC01FB010084F185E02D099509
:100A0000892BE1F6D80116968D919C911797019646
:100A100017969C938E931697CE01DF91CF911F91DD
:100A20000F910895FA01AA27283051F1203181F160
:100A3000E8946F936E7F6E5F7F4F8F4F9F4FAF4FE6
:100A4000B1E03ED0B4E03CD0670F781F891F9A1FF9
:100A5000A11D680F791F8A1F911DA11D6A0F711DAD
:100A6000811D911DA11D20D009F468943F912AE0B9
:100A7000269F11243019305D3193DEF6CF010895A1
:100A8000462F4770405D4193B3E00FD0C9F7F6CFD2
:100A9000462F4F70405D4A3318F0495D31FD40529A
:100AA000419302D0A9F7EACFB4E0A6959795879530
:100AB00077956795BA95C9F700976105710508950F
:100AC0009B01AC010A2E06945795479537952795BB
:100AD000BA95C9F7620F731F841F951FA01D089553
:100AE0002F923F924F925F926F927F928F929F923E
:100AF000AF92BF92CF92DF92EF92FF920F931F932C
:100B0000CF93DF93CDB7DEB7CA1BDB0B0FB6F894DC
:100B1000DEBF0FBECDBF09942A88398848885F841C
:100B20006E847D848C849B84AA84B984C884DF808D
:100B3000EE80FD800C811B81AA81B981CE0FD11D71
:100B40000FB6F894DEBF0FBECDBFED010895F89447
:020B5000FFCFD5
:060B520025640D0A0000FD
:00000001FF
