S00D00004C414232422E73726563D4
S11300000C945A000C9470000C9464000C946400DA
S11300100C9464000C9464000C9464000C946400CC
S11300200C9464000C9464000C9464000C946400BC
S11300300C9464000C9464000C9464000C946400AC
S11300400C9464000C9464000C9464000C9464009C
S11300500C9464000C9464000C9464000C9464008C
S11300600C9464000C9464000C9464000C9464007C
S11300700C9464000C9464000C9464000C9464006C
S11300800C9464000C9464000C9464000C9464005C
S11300900C9464000C9464000C9464000C9464004C
S11300A00C9464000C9464000C9464000C9464003C
S11300B00C94640011241FBECFEFD8E0DEBFCDBF87
S11300C00E9466000C948D000C940000229A2A9AD7
S11300D05A9A82E08093690081E08DBB7894FFCFC7
S11300E01F920F920FB60F9211248F939F93AF9389
S11300F0BF9315B885ED9CEDA2E3B0E00197A1098B
S1130100B109E1F784E085B9BF91AF919F918F91D7
S11101100F900FBE0F901F901895F894FFCF1C
S9030000FC
