S01500005461736B325F50617274315F432E7372656381
S11300000C945A000C946C000C946C000C946C00CE
S11300100C946C000C946C000C946C000C946C00AC
S11300200C946C000C946C000C946C000C946C009C
S11300300C946C000C946C000C946C000C946C008C
S11300400C94B3000C946C000C946C000C946C0035
S11300500C946C000C946C000C946C000C946C006C
S11300600C946C000C946C000C946C000C946C005C
S11300700C946C000C946C000C946C000C946C004C
S11300800C946C000C946C000C946C000C946C003C
S11300900C946C000C946C000C946C000C946C002C
S11300A00C946C000C946C000C946C000C946C001C
S11300B00C946C0011241FBECFEFD8E0DEBFCDBF7F
S11300C021E0A0E0B1E001C01D92A230B207E1F747
S11300D00E946E000C94CB000C940000229AEEE671
S11300E0F0E080818160808316BC789485B585605A
S11300F085BD41E050E091E060E0F1E0E0E074E0D3
S11301002091000130910101892F2A3131050CF42D
S1130110862F882371F0892F4130510509F0862FED
S1130120882339F086B58C38E8F375B940E050E09F
S1130130E7CF892F2C3231050CF4862F882301F365
S1130140892F4115510509F0862F8823C9F286B5F8
S11301508034E8F315B8109201011092000116BC26
S11301604F2F5E2FCDCF1F920F920FB60F921124F7
S11301708F939F9316BC8091000190910101019689
S113018090930101809300019F918F910F900FBE76
S10D01900F901F901895F894FFCF0C
S9030000FC
