:100000000C945A000C9479000C9477000C947700AF
:100010000C9477000C9477000C9477000C94770084
:100020000C9477000C9477000C9477000C94770074
:100030000C9477000C9477000C9477000C94770064
:100040000C9477000C9477000C9477000C94770054
:100050000C9477000C9477000C9477000C94770044
:100060000C9477000C9477000C9477000C94770034
:100070000C9477000C9477000C9477000C94770024
:100080000C9477000C9477000C9477000C94770014
:100090000C9477000C9477000C9477000C94770004
:1000A0000C9477000C9477000C9477000C947700F4
:1000B0000C94770011241FBECFEFD8E0DEBFCDBF78
:1000C00012E0A0E0B1E0EEE0F3E102C005900D9295
:1000D000A63EB107D9F723E0A6EEB2E001C01D921B
:1000E000AF30B207E1F70E9460010C9485090C94CF
:1000F00000001F920F920FB60F9211248F9381E090
:100100008093E7028F910F900FBE0F901F9018956C
:10011000CF93DF931F92CDB7DEB786E291E00E94C6
:100120005D0684E591E00E945D0641E050E0BE017D
:100130006F5F7F4F80E00E94320289811F928F9310
:1001400080E891E09F938F930E94470641E050E042
:10015000BE016F5F7F4F81E00E94320289811F9252
:100160008F938EE891E09F938F930E94470641E022
:1001700050E0BE016F5F7F4F82E00E9432028981B2
:100180001F928F938CE991E09F938F930E94470673
:1001900041E050E0BE016F5F7F4F84E00E94320279
:1001A00089811F928F938DEA91E09F938F930E9494
:1001B000470641E050E0BE016F5F7F4F85E00E943F
:1001C000320289811F928F938FEB91E09F938F93DF
:1001D0000E94470641E050E0BE016F5F7F4F86E01E
:1001E0000E94320289811F928F938DEC91E09F9340
:1001F0008F930E94470641E050E0BE016F5F7F4F42
:1002000087E00E94320289811F928F938DED91E0E9
:100210009F938F930E94470641E050E0BE016F5FBD
:100220007F4F8DE10E94320289811F928F938BEE66
:1002300091E09F938F930E9447060FB6F894DEBF1C
:100240000FBECDBF8AEF91E00E945D060F90DF9157
:10025000CF91089584E480937C0085E880937A00B0
:100260000895EAE7F0E0808180648083808184FFE4
:10027000FDCFEAE7F0E080818061808360917800C3
:100280008091790070E0782B072E000C880B990B79
:100290000E94470520E030E040E85AE30E94D30581
:1002A00020E030E44CE955E40E94D30520E030E042
:1002B00040E251E40E949D040E940F05CB01089585
:1002C000CF93DF93CDB7DEB7A0970FB6F894DEBF1C
:1002D0000FBECDBF8BE1E7E2F2E0DE0111960190A7
:1002E0000D928A95E1F70E948A040E942A010E94D9
:1002F00031019F938F9382E492E09F938F930E94AA
:1003000047060E9435020E9488000E945A03CE01CF
:1003100001960E94650391E00F900F900F900F904F
:10032000811101C090E09093E6028091E60288235B
:1003300021F08CE692E00E945D0603E812E06894EA
:10034000992495F89E012F5F3F4F790155245394CE
:10035000612C0F2EF3EAAF2EF2E0BF2EF02DC22E4D
:10036000DF2C852C762C0E9431019F938F931F9355
:100370000F931F929F92FF92EF920E948D068C2DF9
:100380009D2D0E946503982D0FB6F894DEBF0FBE19
:10039000CDBF811101C0972D9093E6028091E702B5
:1003A000882309F36092E7020E9422049F938F93AF
:1003B000BF92AF920E9447063FEF89E698E1315025
:1003C00080409040E1F700C000000E9431019F93FF
:1003D0008F931F930F931F929F92FF92EF920E9411
:1003E0008D068C2D9D2D0E946503952D0FB6F894DA
:1003F000DEBF0FBECDBF811101C0962D9093E602E6
:100400008091E602882309F4AECF89EB92E00E9446
:100410005D06A9CFDF92EF92FF920F931F93CF93C8
:10042000DF937B018A012A980E946904D82E011566
:10043000110551F0E7010E0D1F1D88810E9469040E
:100440008993C017D107C9F72A9A8D2DDF91CF91D3
:100450001F910F91FF90EF90DF90089580620E94AE
:100460000A0208950E940A0208950F931F93CF93E2
:10047000DF931F92CDB7DEB7F894E9E6F0E0808114
:1004800082608083E89A7894219A229A2A9A2998FD
:100490000E945A042FEF81EE94E02150804090405A
:1004A000E1F700C000000FE30093080341E050E0D3
:1004B00068E073E080E00E942E021092080341E0A1
:1004C00050E068E073E081E00E942E0280EF8093AC
:1004D000080341E050E068E073E084E00E942E02EF
:1004E0001092080341E050E068E073E082E00E946F
:1004F0002E0284E78093080341E050E068E073E057
:1005000085E00E942E028EE08093080341E050E0D7
:1005100068E073E086E00E942E0210E71093080363
:1005200041E050E068E073E087E00E942E02009313
:10053000080341E050E068E073E08CE10E942E0285
:1005400084E08093080341E050E068E073E08DE1CF
:100550000E942E02198340E050E060E070E082EEDD
:100560000E942E0240E050E060E070E081EE0E94C8
:100570002E0245E050E065E071E08AE00E942E0224
:1005800045E050E060E071E080E10E942E0241E031
:1005900050E0BE016F5F7F4F82E00E942E02898192
:1005A0008160898341E050E0BE016F5F7F4F82E050
:1005B0000E942E020F90DF91CF911F910F9108950D
:1005C0001F93CF93DF931F92CDB7DEB7182F41E073
:1005D00050E0BE016F5F7F4F80E00E943202133017
:1005E00071F128F4113059F01230E9F05EC0153085
:1005F00009F447C0D0F1163009F445C056C08981CE
:1006000081FD53C082608093080341E050E068E0C0
:1006100073E080E00E942E028FE39FE10197F1F7E3
:1006200000C0000042C089818D7F8093080341E0B3
:1006300050E068E073E080E00E942E0236C08981BD
:1006400081608093080341E050E068E073E080E05F
:100650000E942E0280E78093080341E050E068E0AA
:1006600073E087E00E942E0220C089818E7F8093F4
:10067000080341E050E068E073E080E00E942E0251
:1006800014C0299812C089818E7F8093080341E0AD
:1006900050E068E073E080E00E942E02299A87E52E
:1006A00092E00197F1F700C000000F90DF91CF9129
:1006B0001F91089583E00E94E002299A87E592E065
:1006C0000197F1F700C000000895CF92DF92EF92FA
:1006D000FF920F931F93CF93DF93CDB7DEB7A09711
:1006E0000FB6F894DEBF0FBECDBF6C016894FF2437
:1006F000F5F8CE010196FC012F2D11922A95E9F70C
:10070000B6010E944006F60101900020E9F73197FA
:100710008F010C191D0984E00E94E00240E050E0C6
:1007200060E070E082EE0E942E0240E050E060E067
:1007300070E081EE0E942E02F092080341E050E04A
:1007400068E073E087E00E942E0241E050E068E03C
:1007500073E080E00E9432028091080380648093FD
:10076000080341E050E068E073E080E00E942E0260
:100770002A9880EB0E946404EFEFE00F002381F0E1
:100780008601EE2EF12CF70131967601EE0EFF1E5A
:10079000F80181918F010E9464040E151F05C1F7B5
:1007A00080E00E9464042A9A299AF0E5FA95F1F70C
:1007B000299841E050E068E073E087E00E9432024F
:1007C0008091080385FD0BC041E050E068E073E0D4
:1007D00087E00E9432028091080385FFF5CFCE01A9
:1007E00001969F938F938DEC92E09F938F930E943D
:1007F000470641E050E068E073E080E00E9432028A
:10080000809108038F7B8093080341E050E068E00B
:1008100073E080E00E942E020E945A030F900F9016
:100820000F900F9081E0A0960FB6F894DEBF0FBE38
:10083000CDBFDF91CF911F910F91FF90EF90DF908F
:10084000CF90089580E2E8EEF2E0DF011D928A95F4
:10085000E9F741E050E068E073E080E60E94320290
:1008600040910803442341F050E04F5F5F4F68EE32
:1008700072E081E60E940A028091E802882369F012
:1008800080E48093080341E050E068E073E087E093
:100890000E942E0288EE92E0089580E4809308037F
:1008A00041E050E068E073E087E00E942E028FEDA7
:1008B00092E00895249884B1886284B980E58CBD63
:1008C0008DB581608DBD08958EBD0DB407FEFDCF41
:1008D00008958EBD0DB407FEFDCF8EB50895CF935C
:1008E000C82F8A3019F48DE00E946F04E0ECF0E02C
:1008F000808185FFFDCFC093C60080E090E0CF915E
:100900000895E0ECF0E080818823ECF78091C60048
:1009100090E008951092C50087E68093C40088E1B6
:100920008093C100E9E0F3E088E191E09383828362
:100930008AE091E09183808308950E94B1040C9431
:1009400099050E94920558F00E948B0540F029F409
:100950005F3F29F00C94820551110C94CD050C9445
:1009600088050E94AA0568F39923B1F3552391F3F2
:10097000951B550BBB27AA2762177307840738F00E
:100980009F5F5F4F220F331F441FAA1FA9F335D06B
:100990000E2E3AF0E0E832D091505040E695001C1F
:1009A000CAF72BD0FE2F29D0660F771F881FBB1FD9
:1009B000261737074807AB07B0E809F0BB0B802DB7
:1009C000BF01FF2793585F4F3AF09E3F510578F0E3
:1009D0000C9482050C94CD055F3FE4F3983ED4F36C
:1009E000869577956795B795F7959F5FC9F7880FB7
:1009F000911D9695879597F90895E1E0660F771F09
:100A0000881FBB1F621773078407BA0720F0621B99
:100A1000730B840BBA0BEE1F88F7E09508950E94C4
:100A200016056894B1110C94CD0508950E94B20585
:100A300088F09F5798F0B92F9927B751B0F0E1F09F
:100A4000660F771F881F991F1AF0BA95C9F714C04F
:100A5000B13091F00E94CC05B1E008950C94CC0522
:100A6000672F782F8827B85F39F0B93FCCF3869588
:100A700077956795B395D9F73EF4909580957095E5
:100A800061957F4F8F4F9F4F0895E89409C097FB62
:100A90003EF490958095709561957F4F8F4F9F4F55
:100AA0009923A9F0F92F96E9BB279395F695879599
:100AB00077956795B795F111F8CFFAF4BB0F11F45C
:100AC00060FF1BC06F5F7F4F8F4F9F4F16C0882303
:100AD00011F096E911C0772321F09EE8872F762F39
:100AE00005C0662371F096E8862F70E060E02AF07A
:100AF0009A95660F771F881FDAF7880F9695879566
:100B000097F9089597F99F6780E870E060E008958D
:100B10009FEF80EC089500240A9416161706180615
:100B20000906089500240A941216130614060506F1
:100B30000895092E0394000C11F4882352F0BB0F82
:100B400040F4BF2B11F460FF04C06F5F7F4F8F4FE5
:100B50009F4F089557FD9058440F551F59F05F3F20
:100B600071F04795880F97FB991F61F09F3F79F0CF
:100B700087950895121613061406551FF2CF469551
:100B8000F1DF08C0161617061806991FF1CF8695D3
:100B90007105610508940895E894BB2766277727B7
:100BA000CB0197F908950E94E6050C9499050E94DF
:100BB0008B0538F00E94920520F0952311F00C94DB
:100BC00082050C94880511240C94CD050E94AA0579
:100BD00070F3959FC1F3950F50E0551F629FF00190
:100BE000729FBB27F00DB11D639FAA27F00DB11DA9
:100BF000AA1F649F6627B00DA11D661F829F222732
:100C0000B00DA11D621F739FB00DA11D621F839FB8
:100C1000A00D611D221F749F3327A00D611D231F8E
:100C2000849F600D211D822F762F6A2F11249F57DC
:100C300050409AF0F1F088234AF0EE0FFF1FBB1FDF
:100C4000661F771F881F91505040A9F79E3F51059E
:100C500080F00C9482050C94CD055F3FE4F3983E40
:100C6000D4F3869577956795B795F795E7959F5F48
:100C7000C1F7FE2B880F911D9695879597F90895DA
:100C8000FB01DC0101900D920020E1F70895A0E046
:100C9000B0E0EDE4F6E00C945E09AE014B5F5F4F0F
:100CA000FA0161917191AF0180910B0390910C0356
:100CB0000E94BD06E2E00C947A090F931F93CF9334
:100CC000DF93E0910B03F0910C03238121FF1BC004
:100CD0008C01D0E0C0E0F80181918F0160910B039D
:100CE00070910C03DB011896ED91FC911997882304
:100CF00031F00995892B79F3DFEFCFEFECCF8AE064
:100D00000995892B19F08FEF9FEF02C08D2F9C2F33
:100D1000DF91CF911F910F910895AEE0B0E0E3E92C
:100D2000F6E00C945C090D891E898F89988D26E068
:100D30002C831A83098397FF02C080E090E8019713
:100D40009E838D83AE01455E5F4F698D7A8DCE01A6
:100D500001960E94BD064D815E8157FD0AC02F811C
:100D60003885421753070CF49A01F801E20FF31F7C
:100D700010822E96E4E00C947809ABE0B0E0E3EC4E
:100D8000F6E00C944E096C017B018A01FC0117828C
:100D90001682838181FFCCC1CE0101963C01F60110
:100DA0009381F70193FD859193FF81917F018823C2
:100DB00009F4BAC1853239F493FD859193FF81918D
:100DC0007F01853229F4B60190E00E94B408E7CF94
:100DD000912C212C312CFFE1F315D8F08B3279F0D6
:100DE00038F4803279F08332A1F4232D20611DC0C4
:100DF0008D3261F0803369F4232D216016C0832D7C
:100E00008260382EE32DE4603E2E2AC0F32DF86078
:100E10001DC037FC2DC020ED280F2A3040F08E3247
:100E2000B9F436FC81C1232D2064322E19C036FE60
:100E300006C08AE0989E200D1124922E11C0EAE08F
:100E40002E9E200D1124222EF32DF0623F2E08C07D
:100E50008C3621F4832D8068382E02C0883641F408
:100E6000F70193FD859193FF81917F018111B3CFAC
:100E7000982F9F7D9554933028F40C5F1F4F9FE36C
:100E800099830DC0833631F0833771F0833509F0D3
:100E900059C021C0F801808189830E5F1F4F8824CB
:100EA0008394912C530113C02801F2E04F0E511C82
:100EB000F801A080B18036FE03C0692D70E002C049
:100EC0006FEF7FEFC5010E94A9084C018201F32D4D
:100ED000FF773F2E16C0280122E0420E511CF80178
:100EE000A080B18036FE03C0692D70E002C06FEFB4
:100EF0007FEFC5010E949E084C01F32DF0683F2E44
:100F0000820133FC1BC0822D90E088169906B0F454
:100F1000B60180E290E00E94B4082A94F4CFF50173
:100F200037FC859137FE81915F01B60190E00E9408
:100F3000B40821102A9421E0821A910881149104A6
:100F400071F7E8C0843611F0893641F5F80137FEB3
:100F500007C060817181828193810C5F1F4F08C03F
:100F600060817181072E000C880B990B0E5F1F4F5B
:100F7000F32DFF763F2E97FF09C0909580957095D1
:100F800061957F4F8F4F9F4FF0683F2E2AE030E0F2
:100F9000A3010E94F008882E861845C0853731F4D9
:100FA000232D2F7EB22E2AE030E025C0932D997F8D
:100FB000B92E8F36C1F018F4883579F0B5C0803776
:100FC00019F0883721F0B0C0E92FE061BE2EB4FEE1
:100FD0000DC0FB2DF460BF2E09C034FE0AC0292FBE
:100FE0002660B22E06C028E030E005C020E130E0E7
:100FF00002C020E132E0F801B7FE07C060817181D4
:10100000828193810C5F1F4F06C06081718180E0F7
:1010100090E00E5F1F4FA3010E94F008882E8618F3
:10102000FB2DFF773F2E36FE0DC0232D2E7FA22EE7
:10103000891458F434FE0BC032FC09C0832D8E7E17
:10104000A82E05C0B82CA32C03C0B82C01C0B92C05
:10105000A4FE0FC0FE01E80DF11D8081803321F454
:101060009A2D997EA92E09C0A2FE06C0B394B3940E
:1010700004C08A2D867809F0B394A3FC11C0A0FEA9
:1010800006C0B21488F4280C922C9B180EC0B2141F
:1010900060F4B60180E290E00E94B408B394F7CF08
:1010A000B21418F42B1802C0982C212CA4FE10C0E6
:1010B000B60180E390E00E94B408A2FE17C0A1FC34
:1010C00003C088E790E002C088E590E0B6010CC05C
:1010D0008A2D867859F0A1FE02C08BE201C080E221
:1010E000A7FC8DE2B60190E00E94B408891438F4A0
:1010F000B60180E390E00E94B4089A94F7CF8A94F6
:10110000F301E80DF11D8081B60190E00E94B40862
:101110008110F5CF222009F442CEB60180E290E0A2
:101120000E94B4082A94F6CFF6018681978102C006
:101130008FEF9FEF2B96E2E10C946A09FC0105907A
:10114000615070400110D8F7809590958E0F9F1FC9
:101150000895FC016150704001900110D8F780950E
:1011600090958E0F9F1F08950F931F93CF93DF933A
:10117000FB01238121FD03C08FEF9FEF2CC022FFD5
:1011800016C046815781248135814217530744F4A4
:10119000A081B1819D012F5F3F4F318320838C93CC
:1011A000268137812F5F3F4F3783268314C08B0101
:1011B000EC01FB010084F185E02D0995892BE1F616
:1011C000D80116968D919C911797019617969C932E
:1011D0008E931697CE01DF91CF911F910F910895B5
:1011E000FA01AA27283051F1203181F1E8946F9358
:1011F0006E7F6E5F7F4F8F4F9F4FAF4FB1E03ED0FE
:10120000B4E03CD0670F781F891F9A1FA11D680F9B
:10121000791F8A1F911DA11D6A0F711D811D911DCE
:10122000A11D20D009F468943F912AE0269F112443
:101230003019305D3193DEF6CF010895462F4770A7
:10124000405D4193B3E00FD0C9F7F6CF462F4F7002
:10125000405D4A3318F0495D31FD4052419302D060
:10126000A9F7EACFB4E0A695979587957795679506
:10127000BA95C9F700976105710508959B01AC0106
:101280000A2E06945795479537952795BA95C9F72D
:10129000620F731F841F951FA01D08952F923F9208
:1012A0004F925F926F927F928F929F92AF92BF9276
:1012B000CF92DF92EF92FF920F931F93CF93DF9322
:1012C000CDB7DEB7CA1BDB0B0FB6F894DEBF0FBE7F
:1012D000CDBF09942A88398848885F846E847D84CC
:1012E0008C849B84AA84B984C884DF80EE80FD80CE
:1012F0000C811B81AA81B981CE0FD11D0FB6F89444
:0E130000DEBF0FBECDBFED010895F894FFCF04
:10130E00D7D7D7D7D7E7E7E7E7E700000001000018
:10131E000000000081040000000000020000000038
:10132E006F04000000005374617274757020737541
:10133E00636365737366756C0A0A206E52463234A7
:10134E004C30312B20636F6E666967757265642051
:10135E0061733A002D2D2D2D2D2D2D2D2D2D2D2D55
:10136E002D2D2D2D2D2D2D2D2D2D2D2D2D2D2D2D9F
:10137E002D2D2D2D2D2D2D2D2D2D2D2D2D2D2D00BC
:10138E00434F4E4649470909307825780A00454EA5
:10139E005F4141090909307825780A00454E5F52B0
:1013AE0058414444520909307825780A005345546F
:1013BE0055505F524554520909307825780A00522B
:1013CE00465F4348090909307825780A0052465F7E
:1013DE0053455455500909307825780A0053544125
:1013EE005455530909307825780A0046454154551D
:1013FE0052450909307825780A002D2D2D2D2D2DD9
:10140E002D2D2D2D2D2D2D2D2D2D2D2D2D2D2D2DFE
:10141E002D2D2D2D2D2D2D2D2D2D2D2D2D2D2D2DEE
:10142E002D2D2D2D2D0A0048656C6C6F2066726F68
:10143E006D20746865204F74686572205369646509
:10144E00210054657374696E67204144432C205407
:10145E00656D70657261747572652069733A2025C9
:10146E00642043656C736975730A0A00436F6E6E70
:10147E00656374696F6E2045737461626C6973681D
:10148E0065640054656D702076616C7565206672BA
:10149E006F6D2047656F3A2025642043656C736934
:1014AE007573005265636569766564206D65737347
:1014BE006167653A2025730A004D65737361676530
:1014CE00205472616E736D6974746564004D65733A
:1014DE00736167652073656E743A2025730A006622
:0614EE0061696C656400F9
:00000001FF
