S00D00005461736B312E7372656353
S11300000C945A000C9477000C9477000C947700AD
S11300100C9477000C9477000C9477000C94770080
S11300200C9477000C9477000C9477000C94770070
S11300300C9477000C9477000C9477000C94770060
S11300400C9477000C9477000C9477000C94770050
S11300500C9477000C9477000C9477000C94770040
S11300600C9477000C9477000C9477000C94770030
S11300700C9477000C9477000C9477000C94770020
S11300800C9477000C9477000C9477000C94770010
S11300900C9477000C9477000C9477000C94770000
S11300A00C9477000C9477000C9477000C947700F0
S11300B00C94770011241FBECFEFD8E0DEBFCDBF74
S11300C012E0A0E0B1E0EAE3FBE002C005900D928B
S11300D0AC30B107D9F722E0ACE0B2E001C01D9228
S11300E0A431B207E1F70E9446010C949B050C94DD
S11300F0000088E48093B8000895ECEBF0E01082EF
S113010094EA908390819923ECF79091B900987FB9
S11301109830A1F48093BB0084E88093BC00ECEB9E
S1130120F0E080818823ECF79091B900987F9831B2
S113013039F081E0903429F480E0089581E0089555
S113014080E008958093BB0084E88093BC00ECEBCE
S1130150F0E080818823ECF79091B900987F81E0EA
S1130160983209F480E0089584EC8093BC00ECEBB1
S1130170F0E080818823ECF78091BB00089584E946
S11301808093BC00089588E090E09093C50080932C
S1130190C40088E18093C10086E08093C200089582
S11301A02FEF82E597E0215080409040E1F700C0B6
S11301B0000082E70E947D0080E80E94A20080E0A7
S11301C00E94A2000E94BF0082E70E947D0081E895
S11301D00E94A2008BED0E94A2000E94BF0082E751
S11301E00E947D008FE80E94A20081E00E94A2008C
S11301F00E94BF0082E70E947D0080E80E94A20066
S113020083E00E94A2000E94BF000895CF9382E77A
S11302100E947D0084E90E94A2000E94BF0083E73F
S11302200E947D000E94B400C82F0E94B4002C2FAD
S113023030E0382B30930D0220930C020E94B4005E
S1130240C82F0E94B4002C2F30E0382B30931102B9
S1130250209310020E94B400C82F0E94B4002C2FD7
S113026030E0382B30930F0220930E020E94B4002A
S1130270C82F0E94B4002C2F30E0382B3093130287
S1130280209312020E94BF00CF910895CF93DF9371
S1130290CDB7DEB7C350D1400FB6F894DEBF0FBE62
S11302A0CDBF0E94C3000E9479000E94D0000F2E8F
S11302B0FAE18F2EF1E09F2EF02D8E010F5F1F4F7C
S11302C00F2EF7E2AF2EF1E0BF2EF02D0F2EF2E34A
S11302D0CF2EF1E0DF2EF02D0F2EFFE36F2EF1E095
S11302E07F2EF02D0F2EFAE44F2EF1E05F2EF02D2D
S11302F00F2EF6E93F2EF02D7E0125E1E20EF11CD2
S11303000E94060180E091E00E94720280910D0239
S11303108F9380910C028F939F928F921F930F93D0
S11303200E94B102C8010E947202809111028F934F
S1130330809110028F93BF92AF921F930F930E94EC
S1130340B102C8010E94720280910F028F938091C2
S11303500E028F93DF92CF921F930F930E94B102EC
S1130360C8010E947202809113028F93809112023D
S11303708F937F926F921F930F930E94B102C801D3
S11303800E94720280E091E00E9472028FEF93ED6E
S113039020E3815090402040E1F700C000008EE04F
S11303A0E3EBF1E0DE01AA50BF4F01900D928A9574
S11303B0E1F7CE018A509F4F0E9472028FEF93EDB6
S11303C020E3815090402040E1F700C000008CE21F
S11303D0E1ECF1E0DE01A555BF4F01900D928A9545
S11303E0E1F7CE0185559F4F0E9472028FEF93ED86
S11303F020E3815090402040E1F700C0000081E1FB
S1130400EDEEF1E0DE01A952BF4F01900D928A9505
S1130410E1F7CE0189529F4F0E9472028FEF93ED54
S113042020E3815090402040E1F700C0000080911B
S113043013028F93809112028F9380910F028F93F6
S113044080910E028F93809111028F9380911002FC
S11304508F9380910D028F9380910C028F935F9202
S11304604F921F923F92FF92EF920E9481020FB629
S1130470F894DEBF0FBECDBFC7010E9472029FEF8A
S113048023ED80E3915020408040E1F700C000005C
S11304908EE0EEEFF1E0DE01A851BF4F01900D9226
S11304A08A95E1F7CE0188519F4F0E9472029FEF17
S11304B023ED80E3915020408040E1F700C000002C
S11304C09FEF2DE389E4915020408040E1F700C084
S11304D0000016CF8093C600E0ECF0E0808185FF39
S11304E0FDCF0895CF93DF93EC018881882331F009
S11304F021960E946A0289918111FBCFDF91CF91ED
S11305000895AEE0B0E0E7E8F2E00C9472050D89DE
S11305101E898F89988D26E02C831A83098397FF7F
S113052002C080E090E801979E838D83AE01455E12
S11305305F4F698D7A8DCE0101960E94D3024D8161
S11305405E8157FD0AC02F813885421753070CF48A
S11305509A01F801E20FF31F10822E96E4E00C9446
S11305608E05AEE0B0E0E7EBF2E00C9472050D8985
S11305701E8986E08C831A8309838FEF9FE79E830D
S11305808D83AE01475E5F4F6F89788DCE010196F2
S11305900E94D302EF81F885E00FF11F10822E969E
S11305A0E4E00C948E05ABE0B0E0E9EDF2E00C94ED
S11305B064056C017B018A01FC0117821682838128
S11305C081FFCCC1CE0101963C01F6019381F70174
S11305D093FD859193FF81917F01882309F4BAC12A
S11305E0853239F493FD859193FF81917F018532A2
S11305F029F4B60190E00E94CA04E7CF912C212C83
S1130600312CFFE1F315D8F08B3279F038F48032D5
S113061079F08332A1F4232D20611DC08D3261F065
S1130620803369F4232D216016C0832D8260382E17
S1130630E32DE4603E2E2AC0F32DF8601DC037FC84
S11306402DC020ED280F2A3040F08E32B9F436FC4C
S113065081C1232D2064322E19C036FE06C08AE0E3
S1130660989E200D1124922E11C0EAE02E9E200D9A
S11306701124222EF32DF0623F2E08C08C3621F473
S1130680832D8068382E02C0883641F4F70193FD2B
S1130690859193FF81917F018111B3CF982F9F7D25
S11306A09554933028F40C5F1F4F9FE399830DC03A
S11306B0833631F0833771F0833509F059C021C096
S11306C0F801808189830E5F1F4F88248394912CC5
S11306D0530113C02801F2E04F0E511CF801A08011
S11306E0B18036FE03C0692D70E002C06FEF7FEF6A
S11306F0C5010E94BF044C018201F32DFF773F2EF8
S113070016C0280122E0420E511CF801A080B180DD
S113071036FE03C0692D70E002C06FEF7FEFC501A4
S11307200E94B4044C01F32DF0683F2E820133FC87
S11307301BC0822D90E088169906B0F4B60180E2C1
S113074090E00E94CA042A94F4CFF50137FC859105
S113075037FE81915F01B60190E00E94CA04211026
S11307602A9421E0821A91088114910471F7E8C057
S1130770843611F0893641F5F80137FE07C06081EF
S11307807181828193810C5F1F4F08C060817181E8
S1130790072E000C880B990B0E5F1F4FF32DFF766D
S11307A03F2E97FF09C090958095709561957F4F76
S11307B08F4F9F4FF0683F2E2AE030E0A3010E9444
S11307C00605882E861845C0853731F4232D2F7EE3
S11307D0B22E2AE030E025C0932D997FB92E8F36B2
S11307E0C1F018F4883579F0B5C0803719F088372E
S11307F021F0B0C0E92FE061BE2EB4FE0DC0FB2D88
S1130800F460BF2E09C034FE0AC0292F2660B22E20
S113081006C028E030E005C020E130E002C020E15D
S113082032E0F801B7FE07C0608171818281938153
S11308300C5F1F4F06C06081718180E090E00E5F05
S11308401F4FA3010E940605882E8618FB2DFF77F3
S11308503F2E36FE0DC0232D2E7FA22E891458F470
S113086034FE0BC032FC09C0832D8E7EA82E05C039
S1130870B82CA32C03C0B82C01C0B92CA4FE0FC003
S1130880FE01E80DF11D8081803321F49A2D997EBB
S1130890A92E09C0A2FE06C0B394B39404C08A2D45
S11308A0867809F0B394A3FC11C0A0FE06C0B2146C
S11308B088F4280C922C9B180EC0B21460F4B60174
S11308C080E290E00E94CA04B394F7CFB21418F403
S11308D02B1802C0982C212CA4FE10C0B60180E372
S11308E090E00E94CA04A2FE17C0A1FC03C088E7DE
S11308F090E002C088E590E0B6010CC08A2D8678AD
S113090059F0A1FE02C08BE201C080E2A7FC8DE297
S1130910B60190E00E94CA04891438F4B60180E359
S113092090E00E94CA049A94F7CF8A94F301E80DE8
S1130930F11D8081B60190E00E94CA048110F5CFB8
S1130940222009F442CEB60180E290E00E94CA045B
S11309502A94F6CFF6018681978102C08FEF9FEF2C
S11309602B96E2E10C948005FC01059061507040E7
S11309700110D8F7809590958E0F9F1F0895FC0164
S11309806150704001900110D8F7809590958E0FBA
S11309909F1F08950F931F93CF93DF93FB01238130
S11309A021FD03C08FEF9FEF2CC022FF16C04681AC
S11309B05781248135814217530744F4A081B181C2
S11309C09D012F5F3F4F318320838C932681378194
S11309D02F5F3F4F3783268314C08B01EC01FB014B
S11309E00084F185E02D0995892BE1F6D80116964E
S11309F08D919C911797019617969C938E931697B9
S1130A00CE01DF91CF911F910F910895FA01AA278A
S1130A10283051F1203181F1E8946F936E7F6E5F3D
S1130A207F4F8F4F9F4FAF4FB1E03ED0B4E03CD0EB
S1130A30670F781F891F9A1FA11D680F791F8A1FCE
S1130A40911DA11D6A0F711D811D911DA11D20D035
S1130A5009F468943F912AE0269F11243019305DEF
S1130A603193DEF6CF010895462F4770405D4193E0
S1130A70B3E00FD0C9F7F6CF462F4F70405D4A332D
S1130A8018F0495D31FD4052419302D0A9F7EACFF5
S1130A90B4E0A6959795879577956795BA95C9F724
S1130AA000976105710508959B01AC010A2E069417
S1130AB05795479537952795BA95C9F7620F731FD0
S1130AC0841F951FA01D08952F923F924F925F920D
S1130AD06F927F928F929F92AF92BF92CF92DF924A
S1130AE0EF92FF920F931F93CF93DF93CDB7DEB7AF
S1130AF0CA1BDB0B0FB6F894DEBF0FBECDBF099443
S1130B002A88398848885F846E847D848C849B8499
S1130B10AA84B984C884DF80EE80FD800C811B81A7
S1130B20AA81B981CE0FD11D0FB6F894DEBF0FBED6
S10D0B30CDBFED010895F894FFCF46
S1130B3A0A2D2D2D2D2D2D2D2D2D2D2D2D2D2D2DFA
S1130B4A2D2D2D2D2D2D2D2D0A00436C656172201E
S1130B5A3D2025642C2000526564203D2025642C08
S1130B6A2000477265656E203D2025642C200042D2
S1130B7A6C7565203D2025640A0047455420687435
S1130B8A7470733A2F2F6170692E7468696E677373
S1130B9A7065616B2E636F6D2F7570646174653F48
S1130BAA6170695F6B65793D50374A44394F4943EF
S1130BBA434E49523539504C266669656C64313D59
S1130BCA2564266669656C64323D25642666696512
S1130BDA6C64333D2564266669656C64343D25641A
S1130BEA0D0A0041542B4349504D55583D300D0AC6
S1130BFA0041542B43495053544152543D225443C7
S1130C0A50222C226170692E7468696E677370654C
S1130C1A616B2E636F6D222C38300D0A0041542B00
S1130C2A43495053454E443D3131390D0A0041542C
S10F0C3A2B434950434C4F53450D0A0016
S9030000FC
