S00F00005461736B315F432E73726563AF
S11300000C945A000C9464000C9464000C946400E6
S11300100C9464000C9464000C9464000C946400CC
S11300200C9464000C9464000C9464000C946400BC
S11300300C9464000C9464000C9464000C946400AC
S11300400C9464000C9464000C9464000C9464009C
S11300500C9464000C9464000C9464000C9464008C
S11300600C9464000C9464000C9464000C9464007C
S11300700C9464000C9464000C9464000C9464006C
S11300800C9464000C9464000C9464000C9464005C
S11300900C9464000C9464000C9464000C9464004C
S11300A00C9464000C9464000C9464000C9464003C
S11300B00C94640011241FBECFEFD8E0DEBFCDBF87
S11300C00E9466000C947D000C940000229A2A9AE7
S11300D034E02BEF35B980E493EBA1E1B0E0019774
S11300E0A109B109E1F725B985ED9CECABE0B0E0DD
S11100F00197A109B109E1F7EDCFF894FFCF14
S9030000FC
