:100000000C945A000C9477000C9477000C947700B1
:100010000C9477000C9477000C9477000C94770084
:100020000C9477000C9477000C9477000C94770074
:100030000C9477000C9477000C9477000C94770064
:100040000C9477000C9477000C9477000C94770054
:100050000C9477000C9477000C9477000C94770044
:100060000C9477000C9477000C9477000C94770034
:100070000C9477000C9477000C9477000C94770024
:100080000C9477000C9477000C9477000C94770014
:100090000C9477000C9477000C9477000C94770004
:1000A0000C9477000C9477000C9477000C947700F4
:1000B0000C94770011241FBECFEFD8E0DEBFCDBF78
:1000C00011E0A0E0B1E0EEEFFBE002C005900D9280
:1000D000A630B107D9F721E0A6E0B1E001C01D923A
:1000E000A630B207E1F70E94BE000C94FD050C9407
:1000F00000001092C50087E68093C40088E18093D9
:10010000C10086E08093C2000895E0ECF0E09081A9
:1001100095FFFDCF8093C6000895CF93DF93EC0148
:100120008881882331F021960E9485008991811170
:10013000FBCFDF91CF91089510928500109284003B
:100140002AEFAC01249FC001259F900D1124019737
:1001500090938900809388008BE080938100A4E8CD
:10016000B0E0E8E8F0E02D913C9111978081918119
:1001700028173907C0F3109281000895CF93DF93B9
:10018000CDB7DEB764970FB6F894DEBF0FBECDBF14
:100190008FEF84B90E94790080E480937C0085E829
:1001A00080937A000AE710E00F2EF8E78F2E912C4B
:1001B000F02D0F2EF9E76F2E712CF02D0F2EF0E0A1
:1001C000AF2EF1E0BF2EF02D0F2EF4E15F2EF02DBB
:1001D000CE0101966C010F2EF9E02F2EF02D6894C0
:1001E000332433F80F2EFCE04F2EF02DF8018081E0
:1001F00080648083F801808184FFFCCF80818061EE
:100200008083F401E080F3018081F12CF82AFF92D1
:10021000EF92BF92AF921F925F92DF92CF920E94B5
:100220000503C6010E948D000FB6F894DEBF0FBE15
:10023000CDBF9AE0E916F10470F525B884E190E0AD
:100240000E949C0035B884E190E00E949C0045B873
:1002500084E190E00E949C00E4E0E5B984E190E054
:100260000E949C00F6E0F5B984E190E00E949C00B9
:1002700082E085B984E190E00E949C0083E085B92A
:1002800084E190E00E949C0081E085B984E190E0E7
:100290000E949C00ABCFC7010A970A9770F525B85A
:1002A00088E290E00E949C0035B888E290E00E94CD
:1002B0009C0045B888E290E00E949C0094E095B9CB
:1002C00088E290E00E949C00E6E0E5B988E290E0D8
:1002D0000E949C00F2E0F5B988E290E00E949C0048
:1002E00083E085B988E290E00E949C0081E085B9B6
:1002F00088E290E00E949C0079CFC70144970A975A
:1003000070F525B88CE390E00E949C0035B88CE332
:1003100090E00E949C0045B88CE390E00E949C0015
:1003200084E085B98CE390E00E949C0096E095B94A
:100330008CE390E00E949C00E2E0E5B98CE390E061
:100340000E949C0083E085B98CE390E00E949C00B1
:1003500081E085B98CE390E00E949C0047CFC70103
:100360004E970A9770F525B880E590E00E949C00B2
:1003700035B880E590E00E949C0045B880E590E0AB
:100380000E949C00F4E0F5B980E590E00E949C009A
:1003900086E085B980E590E00E949C0092E095B9E6
:1003A00080E590E00E949C0083E085B980E590E0C4
:1003B0000E949C0081E085B980E590E00E949C004D
:1003C00015CFC70188970A9770F525B884E690E0A5
:1003D0000E949C0035B884E690E00E949C0045B8DD
:1003E00084E690E00E949C00E4E0E5B984E690E0B9
:1003F0000E949C00F6E0F5B984E690E00E949C0023
:1004000082E085B984E690E00E949C0083E085B993
:1004100084E690E00E949C0081E085B984E690E04B
:100420000E949C00E3CEC701C2970A9730F525B819
:10043000C4010E949C0035B8C4010E949C0045B8CC
:10044000C4010E949C0094E095B9C4010E949C00E4
:10045000E6E0E5B9C4010E949C00F2E0F5B9C401F0
:100460000E949C0083E085B9C4010E949C0081E049
:1004700085B9C4010E949C00B9CEC701CC970A97E8
:1004800070F525B88CE890E00E949C0035B88CE8A7
:1004900090E00E949C0045B88CE890E00E949C008F
:1004A00084E085B98CE890E00E949C0096E095B9C4
:1004B0008CE890E00E949C00E2E0E5B98CE890E0D6
:1004C0000E949C0083E085B98CE890E00E949C002B
:1004D00081E085B98CE890E00E949C0087CEC7013E
:1004E000865491090A9770F525B880EA90E00E9439
:1004F0009C0035B880EA90E00E949C0045B880EAF4
:1005000090E00E949C00F4E0F5B980EA90E00E943F
:100510009C0086E085B980EA90E00E949C0092E011
:1005200095B980EA90E00E949C0083E085B980EA5A
:1005300090E00E949C0081E085B980EA90E00E94F2
:100540009C0054CEE0E5EE1AF108FAE0EF16F10453
:1005500070F525B884EB90E00E949C0035B884EBE0
:1005600090E00E949C0045B884EB90E00E949C00C3
:1005700084E085B984EB90E00E949C0096E095B9F8
:1005800084EB90E00E949C00E2E0E5B984EB90E00F
:100590000E949C0083E085B984EB90E00E949C005F
:1005A00081E085B984EB90E00E949C001FCE25B8C5
:1005B00088EC90E00E949C0035B888EC90E00E94A6
:1005C0009C0045B888EC90E00E949C00F4E0F5B9EE
:1005D00088EC90E00E949C0086E085B988EC90E071
:1005E0000E949C0092E095B988EC90E00E949C00EB
:1005F00083E085B988EC90E00E949C0081E085B999
:1006000088EC90E00E949C00F1CDAEE0B0E0EBE021
:10061000F3E00C94D4050D891E898F89988D26E00E
:100620002C831A83098397FF02C080E090E801972A
:100630009E838D83AE01455E5F4F698D7A8DCE01BD
:1006400001960E9435034D815E8157FD0AC02F81BE
:100650003885421753070CF49A01F801E20FF31F93
:1006600010822E96E4E00C94F005ABE0B0E0EBE3F2
:10067000F3E00C94C6056C017B018A01FC01178232
:100680001682838181FFCCC1CE0101963C01F60127
:100690009381F70193FD859193FF81917F018823D9
:1006A00009F4BAC1853239F493FD859193FF8191A4
:1006B0007F01853229F4B60190E00E942C05E7CF36
:1006C000912C212C312CFFE1F315D8F08B3279F0ED
:1006D00038F4803279F08332A1F4232D20611DC0DB
:1006E0008D3261F0803369F4232D216016C0832D93
:1006F0008260382EE32DE4603E2E2AC0F32DF86090
:100700001DC037FC2DC020ED280F2A3040F08E325E
:10071000B9F436FC81C1232D2064322E19C036FE77
:1007200006C08AE0989E200D1124922E11C0EAE0A6
:100730002E9E200D1124222EF32DF0623F2E08C094
:100740008C3621F4832D8068382E02C0883641F41F
:10075000F70193FD859193FF81917F018111B3CFC3
:10076000982F9F7D9554933028F40C5F1F4F9FE383
:1007700099830DC0833631F0833771F0833509F0EA
:1007800059C021C0F801808189830E5F1F4F8824E2
:100790008394912C530113C02801F2E04F0E511C99
:1007A000F801A080B18036FE03C0692D70E002C060
:1007B0006FEF7FEFC5010E9421054C018201F32DEF
:1007C000FF773F2E16C0280122E0420E511CF8018F
:1007D000A080B18036FE03C0692D70E002C06FEFCB
:1007E0007FEFC5010E9416054C01F32DF0683F2EE6
:1007F000820133FC1BC0822D90E088169906B0F46C
:10080000B60180E290E00E942C052A94F4CFF50115
:1008100037FC859137FE81915F01B60190E00E941F
:100820002C0521102A9421E0821A91088114910448
:1008300071F7E8C0843611F0893641F5F80137FECA
:1008400007C060817181828193810C5F1F4F08C056
:1008500060817181072E000C880B990B0E5F1F4F72
:10086000F32DFF763F2E97FF09C0909580957095E8
:1008700061957F4F8F4F9F4FF0683F2E2AE030E009
:10088000A3010E946805882E861845C0853731F47B
:10089000232D2F7EB22E2AE030E025C0932D997FA4
:1008A000B92E8F36C1F018F4883579F0B5C080378D
:1008B00019F0883721F0B0C0E92FE061BE2EB4FEF8
:1008C0000DC0FB2DF460BF2E09C034FE0AC0292FD5
:1008D0002660B22E06C028E030E005C020E130E0FE
:1008E00002C020E132E0F801B7FE07C060817181EB
:1008F000828193810C5F1F4F06C06081718180E00F
:1009000090E00E5F1F4FA3010E946805882E861895
:10091000FB2DFF773F2E36FE0DC0232D2E7FA22EFE
:10092000891458F434FE0BC032FC09C0832D8E7E2E
:10093000A82E05C0B82CA32C03C0B82C01C0B92C1C
:10094000A4FE0FC0FE01E80DF11D8081803321F46B
:100950009A2D997EA92E09C0A2FE06C0B394B39425
:1009600004C08A2D867809F0B394A3FC11C0A0FEC0
:1009700006C0B21488F4280C922C9B180EC0B21436
:1009800060F4B60180E290E00E942C05B394F7CFAA
:10099000B21418F42B1802C0982C212CA4FE10C0FD
:1009A000B60180E390E00E942C05A2FE17C0A1FCD6
:1009B00003C088E790E002C088E590E0B6010CC073
:1009C0008A2D867859F0A1FE02C08BE201C080E238
:1009D000A7FC8DE2B60190E00E942C05891438F442
:1009E000B60180E390E00E942C059A94F7CF8A9498
:1009F000F301E80DF11D8081B60190E00E942C0505
:100A00008110F5CF222009F442CEB60180E290E0B9
:100A10000E942C052A94F6CFF6018681978102C0A8
:100A20008FEF9FEF2B96E2E10C94E205FC0105901D
:100A3000615070400110D8F7809590958E0F9F1FE0
:100A40000895FC016150704001900110D8F7809525
:100A500090958E0F9F1F08950F931F93CF93DF9351
:100A6000FB01238121FD03C08FEF9FEF2CC022FFEC
:100A700016C046815781248135814217530744F4BB
:100A8000A081B1819D012F5F3F4F318320838C93E3
:100A9000268137812F5F3F4F3783268314C08B0118
:100AA000EC01FB010084F185E02D0995892BE1F62D
:100AB000D80116968D919C911797019617969C9345
:100AC0008E931697CE01DF91CF911F910F910895CC
:100AD000FA01AA27283051F1203181F1E8946F936F
:100AE0006E7F6E5F7F4F8F4F9F4FAF4FB1E03ED015
:100AF000B4E03CD0670F781F891F9A1FA11D680FB3
:100B0000791F8A1F911DA11D6A0F711D811D911DE5
:100B1000A11D20D009F468943F912AE0269F11245A
:100B20003019305D3193DEF6CF010895462F4770BE
:100B3000405D4193B3E00FD0C9F7F6CF462F4F7019
:100B4000405D4A3318F0495D31FD4052419302D077
:100B5000A9F7EACFB4E0A69597958795779567951D
:100B6000BA95C9F700976105710508959B01AC011D
:100B70000A2E06945795479537952795BA95C9F744
:100B8000620F731F841F951FA01D08952F923F921F
:100B90004F925F926F927F928F929F92AF92BF928D
:100BA000CF92DF92EF92FF920F931F93CF93DF9339
:100BB000CDB7DEB7CA1BDB0B0FB6F894DEBF0FBE96
:100BC000CDBF09942A88398848885F846E847D84E3
:100BD0008C849B84AA84B984C884DF80EE80FD80E5
:100BE0000C811B81AA81B981CE0FD11D0FB6F8945B
:0E0BF000DEBF0FBECDBFED010895F894FFCF1C
:060BFE0025640D0A000051
:00000001FF
